{
  "abi": [
    {
      "inputs": [
        {
          "internalType": "address",
          "name": "_modicumContract",
          "type": "address"
        }
      ],
      "stateMutability": "nonpayable",
      "type": "constructor"
    },
    {
      "anonymous": false,
      "inputs": [
        {
          "indexed": true,
          "internalType": "address",
          "name": "owner",
          "type": "address"
        },
        {
          "indexed": true,
          "internalType": "address",
          "name": "approved",
          "type": "address"
        },
        {
          "indexed": true,
          "internalType": "uint256",
          "name": "tokenId",
          "type": "uint256"
        }
      ],
      "name": "Approval",
      "type": "event"
    },
    {
      "anonymous": false,
      "inputs": [
        {
          "indexed": true,
          "internalType": "address",
          "name": "owner",
          "type": "address"
        },
        {
          "indexed": true,
          "internalType": "address",
          "name": "operator",
          "type": "address"
        },
        {
          "indexed": false,
          "internalType": "bool",
          "name": "approved",
          "type": "bool"
        }
      ],
      "name": "ApprovalForAll",
      "type": "event"
    },
    {
      "anonymous": false,
      "inputs": [
        {
          "indexed": false,
          "internalType": "uint256",
          "name": "_fromTokenId",
          "type": "uint256"
        },
        {
          "indexed": false,
          "internalType": "uint256",
          "name": "_toTokenId",
          "type": "uint256"
        }
      ],
      "name": "BatchMetadataUpdate",
      "type": "event"
    },
    {
      "anonymous": false,
      "inputs": [
        {
          "indexed": false,
          "internalType": "uint256",
          "name": "_tokenId",
          "type": "uint256"
        }
      ],
      "name": "MetadataUpdate",
      "type": "event"
    },
    {
      "anonymous": false,
      "inputs": [
        {
          "indexed": true,
          "internalType": "address",
          "name": "from",
          "type": "address"
        },
        {
          "indexed": true,
          "internalType": "address",
          "name": "to",
          "type": "address"
        },
        {
          "indexed": true,
          "internalType": "uint256",
          "name": "tokenId",
          "type": "uint256"
        }
      ],
      "name": "Transfer",
      "type": "event"
    },
    {
      "inputs": [],
      "name": "_getLWToken",
      "outputs": [
        {
          "internalType": "contract LWToken",
          "name": "",
          "type": "address"
        }
      ],
      "stateMutability": "view",
      "type": "function"
    },
    {
      "inputs": [],
      "name": "_getPoems",
      "outputs": [
        {
          "components": [
            {
              "internalType": "string",
              "name": "prompt",
              "type": "string"
            },
            {
              "internalType": "string",
              "name": "result",
              "type": "string"
            }
          ],
          "internalType": "struct LilyWrite.Poem[]",
          "name": "",
          "type": "tuple[]"
        }
      ],
      "stateMutability": "view",
      "type": "function"
    },
    {
      "inputs": [
        {
          "internalType": "address",
          "name": "_user",
          "type": "address"
        }
      ],
      "name": "_getPrompts",
      "outputs": [
        {
          "internalType": "string[]",
          "name": "",
          "type": "string[]"
        }
      ],
      "stateMutability": "view",
      "type": "function"
    },
    {
      "inputs": [
        {
          "internalType": "address",
          "name": "_user",
          "type": "address"
        }
      ],
      "name": "_getUserPoems",
      "outputs": [
        {
          "components": [
            {
              "internalType": "string",
              "name": "prompt",
              "type": "string"
            },
            {
              "internalType": "string",
              "name": "result",
              "type": "string"
            }
          ],
          "internalType": "struct LilyWrite.Poem[]",
          "name": "",
          "type": "tuple[]"
        }
      ],
      "stateMutability": "view",
      "type": "function"
    },
    {
      "inputs": [
        {
          "internalType": "address",
          "name": "to",
          "type": "address"
        },
        {
          "internalType": "uint256",
          "name": "tokenId",
          "type": "uint256"
        }
      ],
      "name": "approve",
      "outputs": [],
      "stateMutability": "nonpayable",
      "type": "function"
    },
    {
      "inputs": [
        {
          "internalType": "address",
          "name": "owner",
          "type": "address"
        }
      ],
      "name": "balanceOf",
      "outputs": [
        {
          "internalType": "uint256",
          "name": "",
          "type": "uint256"
        }
      ],
      "stateMutability": "view",
      "type": "function"
    },
    {
      "inputs": [
        {
          "internalType": "uint256",
          "name": "tokens",
          "type": "uint256"
        }
      ],
      "name": "buyLWTokens",
      "outputs": [],
      "stateMutability": "payable",
      "type": "function"
    },
    {
      "inputs": [
        {
          "internalType": "string",
          "name": "prompt",
          "type": "string"
        }
      ],
      "name": "generatePoem",
      "outputs": [
        {
          "internalType": "uint256",
          "name": "",
          "type": "uint256"
        }
      ],
      "stateMutability": "payable",
      "type": "function"
    },
    {
      "inputs": [
        {
          "internalType": "uint256",
          "name": "tokenId",
          "type": "uint256"
        }
      ],
      "name": "getApproved",
      "outputs": [
        {
          "internalType": "address",
          "name": "",
          "type": "address"
        }
      ],
      "stateMutability": "view",
      "type": "function"
    },
    {
      "inputs": [
        {
          "internalType": "address",
          "name": "owner",
          "type": "address"
        },
        {
          "internalType": "address",
          "name": "operator",
          "type": "address"
        }
      ],
      "name": "isApprovedForAll",
      "outputs": [
        {
          "internalType": "bool",
          "name": "",
          "type": "bool"
        }
      ],
      "stateMutability": "view",
      "type": "function"
    },
    {
      "inputs": [],
      "name": "name",
      "outputs": [
        {
          "internalType": "string",
          "name": "",
          "type": "string"
        }
      ],
      "stateMutability": "view",
      "type": "function"
    },
    {
      "inputs": [
        {
          "internalType": "uint256",
          "name": "tokenId",
          "type": "uint256"
        }
      ],
      "name": "ownerOf",
      "outputs": [
        {
          "internalType": "address",
          "name": "",
          "type": "address"
        }
      ],
      "stateMutability": "view",
      "type": "function"
    },
    {
      "inputs": [
        {
          "internalType": "uint256",
          "name": "_jobID",
          "type": "uint256"
        },
        {
          "internalType": "string",
          "name": "_cid",
          "type": "string"
        }
      ],
      "name": "receiveJobResults",
      "outputs": [],
      "stateMutability": "nonpayable",
      "type": "function"
    },
    {
      "inputs": [],
      "name": "resultCID",
      "outputs": [
        {
          "internalType": "string",
          "name": "",
          "type": "string"
        }
      ],
      "stateMutability": "view",
      "type": "function"
    },
    {
      "inputs": [],
      "name": "resultJobId",
      "outputs": [
        {
          "internalType": "uint256",
          "name": "",
          "type": "uint256"
        }
      ],
      "stateMutability": "view",
      "type": "function"
    },
    {
      "inputs": [
        {
          "internalType": "address",
          "name": "from",
          "type": "address"
        },
        {
          "internalType": "address",
          "name": "to",
          "type": "address"
        },
        {
          "internalType": "uint256",
          "name": "tokenId",
          "type": "uint256"
        }
      ],
      "name": "safeTransferFrom",
      "outputs": [],
      "stateMutability": "nonpayable",
      "type": "function"
    },
    {
      "inputs": [
        {
          "internalType": "address",
          "name": "from",
          "type": "address"
        },
        {
          "internalType": "address",
          "name": "to",
          "type": "address"
        },
        {
          "internalType": "uint256",
          "name": "tokenId",
          "type": "uint256"
        },
        {
          "internalType": "bytes",
          "name": "data",
          "type": "bytes"
        }
      ],
      "name": "safeTransferFrom",
      "outputs": [],
      "stateMutability": "nonpayable",
      "type": "function"
    },
    {
      "inputs": [
        {
          "internalType": "address",
          "name": "operator",
          "type": "address"
        },
        {
          "internalType": "bool",
          "name": "approved",
          "type": "bool"
        }
      ],
      "name": "setApprovalForAll",
      "outputs": [],
      "stateMutability": "nonpayable",
      "type": "function"
    },
    {
      "inputs": [
        {
          "internalType": "bytes4",
          "name": "interfaceId",
          "type": "bytes4"
        }
      ],
      "name": "supportsInterface",
      "outputs": [
        {
          "internalType": "bool",
          "name": "",
          "type": "bool"
        }
      ],
      "stateMutability": "view",
      "type": "function"
    },
    {
      "inputs": [],
      "name": "symbol",
      "outputs": [
        {
          "internalType": "string",
          "name": "",
          "type": "string"
        }
      ],
      "stateMutability": "view",
      "type": "function"
    },
    {
      "inputs": [
        {
          "internalType": "uint256",
          "name": "tokenId",
          "type": "uint256"
        }
      ],
      "name": "tokenURI",
      "outputs": [
        {
          "internalType": "string",
          "name": "",
          "type": "string"
        }
      ],
      "stateMutability": "view",
      "type": "function"
    },
    {
      "inputs": [
        {
          "internalType": "address",
          "name": "from",
          "type": "address"
        },
        {
          "internalType": "address",
          "name": "to",
          "type": "address"
        },
        {
          "internalType": "uint256",
          "name": "tokenId",
          "type": "uint256"
        }
      ],
      "name": "transferFrom",
      "outputs": [],
      "stateMutability": "nonpayable",
      "type": "function"
    }
  ],
  "bytecode": {
    "object": "0x60806040523480156200001157600080fd5b50604051620034f0380380620034f08339810160408190526200003491620001b3565b604051806040016040528060098152602001684c696c79577269746560b81b815250604051806040016040528060028152602001614c5760f01b81525081600090816200008291906200028a565b5060016200009182826200028a565b5050506001600160a01b038116620000ef5760405162461bcd60e51b815260206004820152601f60248201527f436f6e74726163742063616e6e6f74206265207a65726f206164647265737300604482015260640160405180910390fd5b600980546001600160a01b0383166001600160a01b03199182168117909255600a805490911690911790556040516200012890620001a5565b604080825260079082015266262baa37b5b2b760c91b6060820152608060208201819052600290820152614c5760f01b60a082015260c001604051809103906000f0801580156200017d573d6000803e3d6000fd5b50600b80546001600160a01b0319166001600160a01b03929092169190911790555062000356565b610c91806200285f83390190565b600060208284031215620001c657600080fd5b81516001600160a01b0381168114620001de57600080fd5b9392505050565b634e487b7160e01b600052604160045260246000fd5b600181811c908216806200021057607f821691505b6020821081036200023157634e487b7160e01b600052602260045260246000fd5b50919050565b601f8211156200028557600081815260208120601f850160051c81016020861015620002605750805b601f850160051c820191505b8181101562000281578281556001016200026c565b5050505b505050565b81516001600160401b03811115620002a657620002a6620001e5565b620002be81620002b78454620001fb565b8462000237565b602080601f831160018114620002f65760008415620002dd5750858301515b600019600386901b1c1916600185901b17855562000281565b600085815260208120601f198616915b82811015620003275788860151825594840194600190910190840162000306565b5085821015620003465787850151600019600388901b60f8161c191681555b5050505050600190811b01905550565b6124f980620003666000396000f3fe6080604052600436106101355760003560e01c80637a494362116100ab578063aff423e81161006f578063aff423e814610341578063b88d4fde1461036e578063c87b56dd1461038e578063e8bad684146103ae578063e985e9c5146103ce578063e9c4dc7a146103ee57600080fd5b80637a494362146102b757806385c6602e146102d757806386440cbe146102f957806395d89b411461030c578063a22cb4651461032157600080fd5b806323b872dd116100fd57806323b872dd1461020057806342842e0e1461022057806360ce5c30146102405780636352211e1461026157806370a0823114610281578063735da63b146102a157600080fd5b806301ffc9a71461013a57806306fdde031461016f578063081812fc14610191578063095ea7b3146101c957806311a0e650146101eb575b600080fd5b34801561014657600080fd5b5061015a610155366004611c2f565b61040c565b60405190151581526020015b60405180910390f35b34801561017b57600080fd5b5061018461041d565b6040516101669190611c9c565b34801561019d57600080fd5b506101b16101ac366004611caf565b6104af565b6040516001600160a01b039091168152602001610166565b3480156101d557600080fd5b506101e96101e4366004611ce4565b6104d6565b005b3480156101f757600080fd5b506101846105f0565b34801561020c57600080fd5b506101e961021b366004611d0e565b61067e565b34801561022c57600080fd5b506101e961023b366004611d0e565b6106af565b61025361024e366004611dd6565b6106ca565b604051908152602001610166565b34801561026d57600080fd5b506101b161027c366004611caf565b61086b565b34801561028d57600080fd5b5061025361029c366004611e1f565b6108cb565b3480156102ad57600080fd5b5061025360085481565b3480156102c357600080fd5b506101e96102d2366004611e3a565b610951565b3480156102e357600080fd5b506102ec610bec565b6040516101669190611eb6565b6101e9610307366004611caf565b610d6f565b34801561031857600080fd5b50610184610e4a565b34801561032d57600080fd5b506101e961033c366004611f49565b610e59565b34801561034d57600080fd5b5061036161035c366004611e1f565b610e68565b6040516101669190611f80565b34801561037a57600080fd5b506101e9610389366004611fe2565b610f57565b34801561039a57600080fd5b506101846103a9366004611caf565b610f8f565b3480156103ba57600080fd5b506102ec6103c9366004611e1f565b610f9a565b3480156103da57600080fd5b5061015a6103e936600461205e565b611128565b3480156103fa57600080fd5b50600b546001600160a01b03166101b1565b600061041782611156565b92915050565b60606000805461042c90612091565b80601f016020809104026020016040519081016040528092919081815260200182805461045890612091565b80156104a55780601f1061047a576101008083540402835291602001916104a5565b820191906000526020600020905b81548152906001019060200180831161048857829003601f168201915b5050505050905090565b60006104ba8261117b565b506000908152600460205260409020546001600160a01b031690565b60006104e18261086b565b9050806001600160a01b0316836001600160a01b0316036105535760405162461bcd60e51b815260206004820152602160248201527f4552433732313a20617070726f76616c20746f2063757272656e74206f776e656044820152603960f91b60648201526084015b60405180910390fd5b336001600160a01b038216148061056f575061056f8133611128565b6105e15760405162461bcd60e51b815260206004820152603d60248201527f4552433732313a20617070726f76652063616c6c6572206973206e6f7420746f60448201527f6b656e206f776e6572206f7220617070726f76656420666f7220616c6c000000606482015260840161054a565b6105eb83836111dd565b505050565b600c80546105fd90612091565b80601f016020809104026020016040519081016040528092919081815260200182805461062990612091565b80156106765780601f1061064b57610100808354040283529160200191610676565b820191906000526020600020905b81548152906001019060200180831161065957829003601f168201915b505050505081565b610688338261124b565b6106a45760405162461bcd60e51b815260040161054a906120cb565b6105eb8383836112aa565b6105eb83838360405180602001604052806000815250610f57565b6000671bc16d674ec800003410156107245760405162461bcd60e51b815260206004820152601e60248201527f5061796d656e74206f6620322045746865722069732072657175697265640000604482015260640161054a565b600b546040516323b872dd60e01b8152336004820152306024820152670de0b6b3a764000060448201526001600160a01b03909116906323b872dd906064016020604051808303816000875af1158015610782573d6000803e3d6000fd5b505050506040513d601f19601f820116820180604052508101906107a69190612118565b50600a54604051637ce7b17960e01b81526000916001600160a01b031690637ce7b1799034906107da908790600401612135565b60206040518083038185885af11580156107f8573d6000803e3d6000fd5b50505050506040513d601f19601f8201168201806040525081019061081d919061216e565b6000818152600d6020908152604080832080546001600160a01b031916339081179091558352600e82528220805460018101825590835291209192500161086484826121cd565b5092915050565b6000818152600260205260408120546001600160a01b0316806104175760405162461bcd60e51b8152602060048201526018602482015277115490cdcc8c4e881a5b9d985b1a59081d1bdad95b88125160421b604482015260640161054a565b60006001600160a01b0382166109355760405162461bcd60e51b815260206004820152602960248201527f4552433732313a2061646472657373207a65726f206973206e6f7420612076616044820152683634b21037bbb732b960b91b606482015260840161054a565b506001600160a01b031660009081526003602052604090205490565b6008839055600c61096382848361228d565b506000838152600d60209081526040808320546001600160a01b03168352600e825280832080548251818502810185019093528083529192909190849084015b82821015610a4f5783829060005260206000200180546109c290612091565b80601f01602080910402602001604051908101604052809291908181526020018280546109ee90612091565b8015610a3b5780601f10610a1057610100808354040283529160200191610a3b565b820191906000526020600020905b815481529060010190602001808311610a1e57829003601f168201915b5050505050815260200190600101906109a3565b50505050905060008160018351610a669190612363565b81518110610a7657610a76612376565b602002602001015190506000604051806040016040528083815260200186868080601f0160208091040260200160405190810160405280939291908181526020018383808284376000920182905250939094525050888152600d60209081526040808320546001600160a01b03168352600f82528220805460018101825590835291208351939450849360029092020191508190610b1490826121cd565b5060208201516001820190610b2990826121cd565b505060108054600181018255600091909152825183925060029091027f1b6847dc741a1b0cd08d278845f9d819d87b734759afb55fe2de5cb82a9ae67201908190610b7490826121cd565b5060208201516001820190610b8990826121cd565b5050506000868152600d6020908152604091829020548251601f8801839004830281018301909352868352610be4926001600160a01b0390911691889088908190840183828082843760009201919091525061140e92505050565b505050505050565b60606010805480602002602001604051908101604052809291908181526020016000905b82821015610d665783829060005260206000209060020201604051806040016040529081600082018054610c4390612091565b80601f0160208091040260200160405190810160405280929190818152602001828054610c6f90612091565b8015610cbc5780601f10610c9157610100808354040283529160200191610cbc565b820191906000526020600020905b815481529060010190602001808311610c9f57829003601f168201915b50505050508152602001600182018054610cd590612091565b80601f0160208091040260200160405190810160405280929190818152602001828054610d0190612091565b8015610d4e5780601f10610d2357610100808354040283529160200191610d4e565b820191906000526020600020905b815481529060010190602001808311610d3157829003601f168201915b50505050508152505081526020019060010190610c10565b50505050905090565b610d80662386f26fc100008261238c565b341015610dc55760405162461bcd60e51b815260206004820152601360248201527253656e6420656e6f75676820746f6b656e732160681b604482015260640161054a565b600b546001600160a01b03166340c10f1933610de984670de0b6b3a764000061238c565b6040516001600160e01b031960e085901b1681526001600160a01b0390921660048301526024820152604401600060405180830381600087803b158015610e2f57600080fd5b505af1158015610e43573d6000803e3d6000fd5b5050505050565b60606001805461042c90612091565b610e6433838361143d565b5050565b6001600160a01b0381166000908152600e60209081526040808320805482518185028101850190935280835260609492939192909184015b82821015610f4c578382906000526020600020018054610ebf90612091565b80601f0160208091040260200160405190810160405280929190818152602001828054610eeb90612091565b8015610f385780601f10610f0d57610100808354040283529160200191610f38565b820191906000526020600020905b815481529060010190602001808311610f1b57829003601f168201915b505050505081526020019060010190610ea0565b505050509050919050565b610f61338361124b565b610f7d5760405162461bcd60e51b815260040161054a906120cb565b610f898484848461150b565b50505050565b60606104178261153e565b6001600160a01b0381166000908152600f60209081526040808320805482518185028101850190935280835260609492939192909184015b82821015610f4c578382906000526020600020906002020160405180604001604052908160008201805461100590612091565b80601f016020809104026020016040519081016040528092919081815260200182805461103190612091565b801561107e5780601f106110535761010080835404028352916020019161107e565b820191906000526020600020905b81548152906001019060200180831161106157829003601f168201915b5050505050815260200160018201805461109790612091565b80601f01602080910402602001604051908101604052809291908181526020018280546110c390612091565b80156111105780601f106110e557610100808354040283529160200191611110565b820191906000526020600020905b8154815290600101906020018083116110f357829003601f168201915b50505050508152505081526020019060010190610fd2565b6001600160a01b03918216600090815260056020908152604080832093909416825291909152205460ff1690565b60006001600160e01b03198216632483248360e11b1480610417575061041782611646565b6000818152600260205260409020546001600160a01b03166111da5760405162461bcd60e51b8152602060048201526018602482015277115490cdcc8c4e881a5b9d985b1a59081d1bdad95b88125160421b604482015260640161054a565b50565b600081815260046020526040902080546001600160a01b0319166001600160a01b03841690811790915581906112128261086b565b6001600160a01b03167f8c5be1e5ebec7d5bd14f71427d1e84f3dd0314c0f7b2291e5b200ac8c7c3b92560405160405180910390a45050565b6000806112578361086b565b9050806001600160a01b0316846001600160a01b0316148061127e575061127e8185611128565b806112a25750836001600160a01b0316611297846104af565b6001600160a01b0316145b949350505050565b826001600160a01b03166112bd8261086b565b6001600160a01b0316146112e35760405162461bcd60e51b815260040161054a906123a3565b6001600160a01b0382166113455760405162461bcd60e51b8152602060048201526024808201527f4552433732313a207472616e7366657220746f20746865207a65726f206164646044820152637265737360e01b606482015260840161054a565b826001600160a01b03166113588261086b565b6001600160a01b03161461137e5760405162461bcd60e51b815260040161054a906123a3565b600081815260046020908152604080832080546001600160a01b03199081169091556001600160a01b0387811680865260038552838620805460001901905590871680865283862080546001019055868652600290945282852080549092168417909155905184937fddf252ad1be2c89b69c2b068fc378daa952ba7f163c4a11628f55a4df523b3ef91a4505050565b600061141960075490565b9050611429600780546001019055565b6114338382611696565b6105eb81836116b0565b816001600160a01b0316836001600160a01b03160361149e5760405162461bcd60e51b815260206004820152601960248201527f4552433732313a20617070726f766520746f2063616c6c657200000000000000604482015260640161054a565b6001600160a01b03838116600081815260056020908152604080832094871680845294825291829020805460ff191686151590811790915591519182527f17307eab39ab6107e8899845ad3d59bd9653f200f220920489ca2b5937696c31910160405180910390a3505050565b6115168484846112aa565b6115228484848461177b565b610f895760405162461bcd60e51b815260040161054a906123e8565b60606115498261117b565b6000828152600660205260408120805461156290612091565b80601f016020809104026020016040519081016040528092919081815260200182805461158e90612091565b80156115db5780601f106115b0576101008083540402835291602001916115db565b820191906000526020600020905b8154815290600101906020018083116115be57829003601f168201915b5050505050905060006115f960408051602081019091526000815290565b9050805160000361160b575092915050565b81511561163d57808260405160200161162592919061243a565b60405160208183030381529060405292505050919050565b6112a28461187c565b60006001600160e01b031982166380ac58cd60e01b148061167757506001600160e01b03198216635b5e139f60e01b145b8061041757506301ffc9a760e01b6001600160e01b0319831614610417565b610e648282604051806020016040528060008152506118f0565b6000828152600260205260409020546001600160a01b031661172b5760405162461bcd60e51b815260206004820152602e60248201527f45524337323155524953746f726167653a2055524920736574206f66206e6f6e60448201526d32bc34b9ba32b73a103a37b5b2b760911b606482015260840161054a565b600082815260066020526040902061174382826121cd565b506040518281527ff8e1a15aba9398e019f0b49df1a4fde98ee17ae345cb5f6b5e2c27f5033e8ce79060200160405180910390a15050565b60006001600160a01b0384163b1561187157604051630a85bd0160e11b81526001600160a01b0385169063150b7a02906117bf903390899088908890600401612469565b6020604051808303816000875af19250505080156117fa575060408051601f3d908101601f191682019092526117f7918101906124a6565b60015b611857573d808015611828576040519150601f19603f3d011682016040523d82523d6000602084013e61182d565b606091505b50805160000361184f5760405162461bcd60e51b815260040161054a906123e8565b805181602001fd5b6001600160e01b031916630a85bd0160e11b1490506112a2565b506001949350505050565b60606118878261117b565b600061189e60408051602081019091526000815290565b905060008151116118be57604051806020016040528060008152506118e9565b806118c884611923565b6040516020016118d992919061243a565b6040516020818303038152906040525b9392505050565b6118fa83836119b6565b611907600084848461177b565b6105eb5760405162461bcd60e51b815260040161054a906123e8565b6060600061193083611b41565b600101905060008167ffffffffffffffff81111561195057611950611d4a565b6040519080825280601f01601f19166020018201604052801561197a576020820181803683370190505b5090508181016020015b600019016f181899199a1a9b1b9c1cb0b131b232b360811b600a86061a8153600a850494508461198457509392505050565b6001600160a01b038216611a0c5760405162461bcd60e51b815260206004820181905260248201527f4552433732313a206d696e7420746f20746865207a65726f2061646472657373604482015260640161054a565b6000818152600260205260409020546001600160a01b031615611a715760405162461bcd60e51b815260206004820152601c60248201527f4552433732313a20746f6b656e20616c7265616479206d696e74656400000000604482015260640161054a565b6000818152600260205260409020546001600160a01b031615611ad65760405162461bcd60e51b815260206004820152601c60248201527f4552433732313a20746f6b656e20616c7265616479206d696e74656400000000604482015260640161054a565b6001600160a01b038216600081815260036020908152604080832080546001019055848352600290915280822080546001600160a01b0319168417905551839291907fddf252ad1be2c89b69c2b068fc378daa952ba7f163c4a11628f55a4df523b3ef908290a45050565b60008072184f03e93ff9f4daa797ed6e38ed64bf6a1f0160401b8310611b805772184f03e93ff9f4daa797ed6e38ed64bf6a1f0160401b830492506040015b6d04ee2d6d415b85acef81000000008310611bac576d04ee2d6d415b85acef8100000000830492506020015b662386f26fc100008310611bca57662386f26fc10000830492506010015b6305f5e1008310611be2576305f5e100830492506008015b6127108310611bf657612710830492506004015b60648310611c08576064830492506002015b600a83106104175760010192915050565b6001600160e01b0319811681146111da57600080fd5b600060208284031215611c4157600080fd5b81356118e981611c19565b60005b83811015611c67578181015183820152602001611c4f565b50506000910152565b60008151808452611c88816020860160208601611c4c565b601f01601f19169290920160200192915050565b6020815260006118e96020830184611c70565b600060208284031215611cc157600080fd5b5035919050565b80356001600160a01b0381168114611cdf57600080fd5b919050565b60008060408385031215611cf757600080fd5b611d0083611cc8565b946020939093013593505050565b600080600060608486031215611d2357600080fd5b611d2c84611cc8565b9250611d3a60208501611cc8565b9150604084013590509250925092565b634e487b7160e01b600052604160045260246000fd5b600067ffffffffffffffff80841115611d7b57611d7b611d4a565b604051601f8501601f19908116603f01168101908282118183101715611da357611da3611d4a565b81604052809350858152868686011115611dbc57600080fd5b858560208301376000602087830101525050509392505050565b600060208284031215611de857600080fd5b813567ffffffffffffffff811115611dff57600080fd5b8201601f81018413611e1057600080fd5b6112a284823560208401611d60565b600060208284031215611e3157600080fd5b6118e982611cc8565b600080600060408486031215611e4f57600080fd5b83359250602084013567ffffffffffffffff80821115611e6e57600080fd5b818601915086601f830112611e8257600080fd5b813581811115611e9157600080fd5b876020828501011115611ea357600080fd5b6020830194508093505050509250925092565b60006020808301818452808551808352604092508286019150828160051b87010184880160005b83811015611f2d57888303603f1901855281518051878552611f0188860182611c70565b91890151858303868b0152919050611f198183611c70565b968901969450505090860190600101611edd565b509098975050505050505050565b80151581146111da57600080fd5b60008060408385031215611f5c57600080fd5b611f6583611cc8565b91506020830135611f7581611f3b565b809150509250929050565b6000602080830181845280855180835260408601915060408160051b870101925083870160005b82811015611fd557603f19888603018452611fc3858351611c70565b94509285019290850190600101611fa7565b5092979650505050505050565b60008060008060808587031215611ff857600080fd5b61200185611cc8565b935061200f60208601611cc8565b925060408501359150606085013567ffffffffffffffff81111561203257600080fd5b8501601f8101871361204357600080fd5b61205287823560208401611d60565b91505092959194509250565b6000806040838503121561207157600080fd5b61207a83611cc8565b915061208860208401611cc8565b90509250929050565b600181811c908216806120a557607f821691505b6020821081036120c557634e487b7160e01b600052602260045260246000fd5b50919050565b6020808252602d908201527f4552433732313a2063616c6c6572206973206e6f7420746f6b656e206f776e6560408201526c1c881bdc88185c1c1c9bdd9959609a1b606082015260800190565b60006020828403121561212a57600080fd5b81516118e981611f3b565b60408152600f60408201526e66617374636861743a76302e302e3160881b60608201526080602082015260006118e96080830184611c70565b60006020828403121561218057600080fd5b5051919050565b601f8211156105eb57600081815260208120601f850160051c810160208610156121ae5750805b601f850160051c820191505b81811015610be4578281556001016121ba565b815167ffffffffffffffff8111156121e7576121e7611d4a565b6121fb816121f58454612091565b84612187565b602080601f83116001811461223057600084156122185750858301515b600019600386901b1c1916600185901b178555610be4565b600085815260208120601f198616915b8281101561225f57888601518255948401946001909101908401612240565b508582101561227d5787850151600019600388901b60f8161c191681555b5050505050600190811b01905550565b67ffffffffffffffff8311156122a5576122a5611d4a565b6122b9836122b38354612091565b83612187565b6000601f8411600181146122ed57600085156122d55750838201355b600019600387901b1c1916600186901b178355610e43565b600083815260209020601f19861690835b8281101561231e57868501358255602094850194600190920191016122fe565b508682101561233b5760001960f88860031b161c19848701351681555b505060018560011b0183555050505050565b634e487b7160e01b600052601160045260246000fd5b818103818111156104175761041761234d565b634e487b7160e01b600052603260045260246000fd5b80820281158282048414176104175761041761234d565b60208082526025908201527f4552433732313a207472616e736665722066726f6d20696e636f72726563742060408201526437bbb732b960d91b606082015260800190565b60208082526032908201527f4552433732313a207472616e7366657220746f206e6f6e20455243373231526560408201527131b2b4bb32b91034b6b83632b6b2b73a32b960711b606082015260800190565b6000835161244c818460208801611c4c565b835190830190612460818360208801611c4c565b01949350505050565b6001600160a01b038581168252841660208201526040810183905260806060820181905260009061249c90830184611c70565b9695505050505050565b6000602082840312156124b857600080fd5b81516118e981611c1956fea26469706673582212204d6fc60850b3817dc1f0135311999ca9694c0bfbc888c249be7ca22ea643038264736f6c6343000813003360a06040523480156200001157600080fd5b5060405162000c9138038062000c91833981016040819052620000349162000128565b8181600362000044838262000221565b50600462000053828262000221565b50503360805250620002ed915050565b634e487b7160e01b600052604160045260246000fd5b600082601f8301126200008b57600080fd5b81516001600160401b0380821115620000a857620000a862000063565b604051601f8301601f19908116603f01168101908282118183101715620000d357620000d362000063565b81604052838152602092508683858801011115620000f057600080fd5b600091505b83821015620001145785820183015181830184015290820190620000f5565b600093810190920192909252949350505050565b600080604083850312156200013c57600080fd5b82516001600160401b03808211156200015457600080fd5b620001628683870162000079565b935060208501519150808211156200017957600080fd5b50620001888582860162000079565b9150509250929050565b600181811c90821680620001a757607f821691505b602082108103620001c857634e487b7160e01b600052602260045260246000fd5b50919050565b601f8211156200021c57600081815260208120601f850160051c81016020861015620001f75750805b601f850160051c820191505b81811015620002185782815560010162000203565b5050505b505050565b81516001600160401b038111156200023d576200023d62000063565b62000255816200024e845462000192565b84620001ce565b602080601f8311600181146200028d5760008415620002745750858301515b600019600386901b1c1916600185901b17855562000218565b600085815260208120601f198616915b82811015620002be578886015182559484019460019091019084016200029d565b5085821015620002dd5787850151600019600388901b60f8161c191681555b5050505050600190811b01905550565b6080516109886200030960003960006102bd01526109886000f3fe608060405234801561001057600080fd5b50600436106100b45760003560e01c806340c10f191161007157806340c10f191461014157806370a082311461015657806395d89b411461017f578063a457c2d714610187578063a9059cbb1461019a578063dd62ed3e146101ad57600080fd5b806306fdde03146100b9578063095ea7b3146100d757806318160ddd146100fa57806323b872dd1461010c578063313ce5671461011f578063395093511461012e575b600080fd5b6100c16101c0565b6040516100ce91906107d2565b60405180910390f35b6100ea6100e536600461083c565b610252565b60405190151581526020016100ce565b6002545b6040519081526020016100ce565b6100ea61011a366004610866565b61026c565b604051601281526020016100ce565b6100ea61013c36600461083c565b610290565b61015461014f36600461083c565b6102b2565b005b6100fe6101643660046108a2565b6001600160a01b031660009081526020819052604090205490565b6100c1610309565b6100ea61019536600461083c565b610318565b6100ea6101a836600461083c565b610398565b6100fe6101bb3660046108c4565b6103a6565b6060600380546101cf906108f7565b80601f01602080910402602001604051908101604052809291908181526020018280546101fb906108f7565b80156102485780601f1061021d57610100808354040283529160200191610248565b820191906000526020600020905b81548152906001019060200180831161022b57829003601f168201915b5050505050905090565b6000336102608185856103d1565b60019150505b92915050565b60003361027a8582856104f5565b61028585858561056f565b506001949350505050565b6000336102608185856102a383836103a6565b6102ad9190610931565b6103d1565b336001600160a01b037f000000000000000000000000000000000000000000000000000000000000000016146102fb576040516330cd747160e01b815260040160405180910390fd5b6103058282610713565b5050565b6060600480546101cf906108f7565b6000338161032682866103a6565b90508381101561038b5760405162461bcd60e51b815260206004820152602560248201527f45524332303a2064656372656173656420616c6c6f77616e63652062656c6f77604482015264207a65726f60d81b60648201526084015b60405180910390fd5b61028582868684036103d1565b60003361026081858561056f565b6001600160a01b03918216600090815260016020908152604080832093909416825291909152205490565b6001600160a01b0383166104335760405162461bcd60e51b8152602060048201526024808201527f45524332303a20617070726f76652066726f6d20746865207a65726f206164646044820152637265737360e01b6064820152608401610382565b6001600160a01b0382166104945760405162461bcd60e51b815260206004820152602260248201527f45524332303a20617070726f766520746f20746865207a65726f206164647265604482015261737360f01b6064820152608401610382565b6001600160a01b0383811660008181526001602090815260408083209487168084529482529182902085905590518481527f8c5be1e5ebec7d5bd14f71427d1e84f3dd0314c0f7b2291e5b200ac8c7c3b925910160405180910390a3505050565b600061050184846103a6565b90506000198114610569578181101561055c5760405162461bcd60e51b815260206004820152601d60248201527f45524332303a20696e73756666696369656e7420616c6c6f77616e63650000006044820152606401610382565b61056984848484036103d1565b50505050565b6001600160a01b0383166105d35760405162461bcd60e51b815260206004820152602560248201527f45524332303a207472616e736665722066726f6d20746865207a65726f206164604482015264647265737360d81b6064820152608401610382565b6001600160a01b0382166106355760405162461bcd60e51b815260206004820152602360248201527f45524332303a207472616e7366657220746f20746865207a65726f206164647260448201526265737360e81b6064820152608401610382565b6001600160a01b038316600090815260208190526040902054818110156106ad5760405162461bcd60e51b815260206004820152602660248201527f45524332303a207472616e7366657220616d6f756e7420657863656564732062604482015265616c616e636560d01b6064820152608401610382565b6001600160a01b03848116600081815260208181526040808320878703905593871680835291849020805487019055925185815290927fddf252ad1be2c89b69c2b068fc378daa952ba7f163c4a11628f55a4df523b3ef910160405180910390a3610569565b6001600160a01b0382166107695760405162461bcd60e51b815260206004820152601f60248201527f45524332303a206d696e7420746f20746865207a65726f2061646472657373006044820152606401610382565b806002600082825461077b9190610931565b90915550506001600160a01b038216600081815260208181526040808320805486019055518481527fddf252ad1be2c89b69c2b068fc378daa952ba7f163c4a11628f55a4df523b3ef910160405180910390a35050565b600060208083528351808285015260005b818110156107ff578581018301518582016040015282016107e3565b506000604082860101526040601f19601f8301168501019250505092915050565b80356001600160a01b038116811461083757600080fd5b919050565b6000806040838503121561084f57600080fd5b61085883610820565b946020939093013593505050565b60008060006060848603121561087b57600080fd5b61088484610820565b925061089260208501610820565b9150604084013590509250925092565b6000602082840312156108b457600080fd5b6108bd82610820565b9392505050565b600080604083850312156108d757600080fd5b6108e083610820565b91506108ee60208401610820565b90509250929050565b600181811c9082168061090b57607f821691505b60208210810361092b57634e487b7160e01b600052602260045260246000fd5b50919050565b8082018082111561026657634e487b7160e01b600052601160045260246000fdfea26469706673582212207c0e083af749f02c27a8f1724ac16d8cf6c4928384b076d909ad58f7435ab3e964736f6c63430008130033",
    "linkReferences": {}
  },
  "methodIdentifiers": {
    "_getLWToken()": "e9c4dc7a",
    "_getPoems()": "85c6602e",
    "_getPrompts(address)": "aff423e8",
    "_getUserPoems(address)": "e8bad684",
    "approve(address,uint256)": "095ea7b3",
    "balanceOf(address)": "70a08231",
    "buyLWTokens(uint256)": "86440cbe",
    "generatePoem(string)": "60ce5c30",
    "getApproved(uint256)": "081812fc",
    "isApprovedForAll(address,address)": "e985e9c5",
    "name()": "06fdde03",
    "ownerOf(uint256)": "6352211e",
    "receiveJobResults(uint256,string)": "7a494362",
    "resultCID()": "11a0e650",
    "resultJobId()": "735da63b",
    "safeTransferFrom(address,address,uint256)": "42842e0e",
    "safeTransferFrom(address,address,uint256,bytes)": "b88d4fde",
    "setApprovalForAll(address,bool)": "a22cb465",
    "supportsInterface(bytes4)": "01ffc9a7",
    "symbol()": "95d89b41",
    "tokenURI(uint256)": "c87b56dd",
    "transferFrom(address,address,uint256)": "23b872dd"
  },
  "id": 40
}